{
  "abi": [
    {
      "inputs": [
        {
          "internalType": "address",
          "name": "tknAddr",
          "type": "address"
        },
        {
          "internalType": "address",
          "name": "veAddr",
          "type": "address"
        }
      ],
      "stateMutability": "nonpayable",
      "type": "constructor"
    },
    {
      "anonymous": false,
      "inputs": [
        {
          "indexed": true,
          "internalType": "address",
          "name": "from",
          "type": "address"
        },
        {
          "indexed": false,
          "internalType": "uint256",
          "name": "amount",
          "type": "uint256"
        },
        {
          "indexed": false,
          "internalType": "uint256",
          "name": "lastClaimedEpoch",
          "type": "uint256"
        },
        {
          "indexed": false,
          "internalType": "uint256",
          "name": "endingEpoch",
          "type": "uint256"
        }
      ],
      "name": "Claim",
      "type": "event"
    },
    {
      "anonymous": false,
      "inputs": [
        {
          "indexed": false,
          "internalType": "address",
          "name": "distributor",
          "type": "address"
        },
        {
          "indexed": false,
          "internalType": "uint256",
          "name": "amount",
          "type": "uint256"
        }
      ],
      "name": "Distribute",
      "type": "event"
    },
    {
      "anonymous": false,
      "inputs": [
        {
          "indexed": true,
          "internalType": "address",
          "name": "account",
          "type": "address"
        },
        {
          "indexed": false,
          "internalType": "bool",
          "name": "status",
          "type": "bool"
        }
      ],
      "name": "IsDistributor",
      "type": "event"
    },
    {
      "anonymous": false,
      "inputs": [
        {
          "indexed": true,
          "internalType": "address",
          "name": "account",
          "type": "address"
        },
        {
          "indexed": false,
          "internalType": "bool",
          "name": "status",
          "type": "bool"
        }
      ],
      "name": "IsOperator",
      "type": "event"
    },
    {
      "anonymous": false,
      "inputs": [
        {
          "indexed": true,
          "internalType": "address",
          "name": "previousOwner",
          "type": "address"
        },
        {
          "indexed": true,
          "internalType": "address",
          "name": "newOwner",
          "type": "address"
        }
      ],
      "name": "OwnershipTransferred",
      "type": "event"
    },
    {
      "inputs": [],
      "name": "EPOCH_BLOCKS",
      "outputs": [
        {
          "internalType": "uint256",
          "name": "",
          "type": "uint256"
        }
      ],
      "stateMutability": "view",
      "type": "function"
    },
    {
      "inputs": [
        {
          "internalType": "address",
          "name": "account",
          "type": "address"
        }
      ],
      "name": "addDistributor",
      "outputs": [],
      "stateMutability": "nonpayable",
      "type": "function"
    },
    {
      "inputs": [
        {
          "internalType": "address",
          "name": "account",
          "type": "address"
        }
      ],
      "name": "addOperator",
      "outputs": [],
      "stateMutability": "nonpayable",
      "type": "function"
    },
    {
      "inputs": [
        {
          "internalType": "address",
          "name": "owner",
          "type": "address"
        }
      ],
      "name": "claim",
      "outputs": [],
      "stateMutability": "nonpayable",
      "type": "function"
    },
    {
      "inputs": [
        {
          "internalType": "address",
          "name": "",
          "type": "address"
        }
      ],
      "name": "claimedEpoches",
      "outputs": [
        {
          "internalType": "uint256",
          "name": "",
          "type": "uint256"
        }
      ],
      "stateMutability": "view",
      "type": "function"
    },
    {
      "inputs": [],
      "name": "currentEpoch",
      "outputs": [
        {
          "internalType": "uint256",
          "name": "",
          "type": "uint256"
        }
      ],
      "stateMutability": "view",
      "type": "function"
    },
    {
      "inputs": [
        {
          "internalType": "uint256",
          "name": "amount",
          "type": "uint256"
        }
      ],
      "name": "distribute",
      "outputs": [],
      "stateMutability": "nonpayable",
      "type": "function"
    },
    {
      "inputs": [
        {
          "internalType": "address",
          "name": "owner",
          "type": "address"
        }
      ],
      "name": "getClaimable",
      "outputs": [
        {
          "internalType": "uint256",
          "name": "",
          "type": "uint256"
        }
      ],
      "stateMutability": "view",
      "type": "function"
    },
    {
      "inputs": [],
      "name": "getCurrentEpoch",
      "outputs": [
        {
          "internalType": "uint256",
          "name": "",
          "type": "uint256"
        }
      ],
      "stateMutability": "view",
      "type": "function"
    },
    {
      "inputs": [
        {
          "internalType": "uint256",
          "name": "epoch",
          "type": "uint256"
        }
      ],
      "name": "getEpochStartBlockHeight",
      "outputs": [
        {
          "internalType": "uint256",
          "name": "",
          "type": "uint256"
        }
      ],
      "stateMutability": "view",
      "type": "function"
    },
    {
      "inputs": [
        {
          "internalType": "address",
          "name": "",
          "type": "address"
        }
      ],
      "name": "isDistributor",
      "outputs": [
        {
          "internalType": "bool",
          "name": "",
          "type": "bool"
        }
      ],
      "stateMutability": "view",
      "type": "function"
    },
    {
      "inputs": [
        {
          "internalType": "address",
          "name": "",
          "type": "address"
        }
      ],
      "name": "isOperator",
      "outputs": [
        {
          "internalType": "bool",
          "name": "",
          "type": "bool"
        }
      ],
      "stateMutability": "view",
      "type": "function"
    },
    {
      "inputs": [],
      "name": "owner",
      "outputs": [
        {
          "internalType": "address",
          "name": "",
          "type": "address"
        }
      ],
      "stateMutability": "view",
      "type": "function"
    },
    {
      "inputs": [
        {
          "internalType": "uint256",
          "name": "",
          "type": "uint256"
        }
      ],
      "name": "payoutForEpoch",
      "outputs": [
        {
          "internalType": "uint256",
          "name": "",
          "type": "uint256"
        }
      ],
      "stateMutability": "view",
      "type": "function"
    },
    {
      "inputs": [
        {
          "internalType": "address",
          "name": "account",
          "type": "address"
        }
      ],
      "name": "removeDistributor",
      "outputs": [],
      "stateMutability": "nonpayable",
      "type": "function"
    },
    {
      "inputs": [
        {
          "internalType": "address",
          "name": "account",
          "type": "address"
        }
      ],
      "name": "removeOperator",
      "outputs": [],
      "stateMutability": "nonpayable",
      "type": "function"
    },
    {
      "inputs": [],
      "name": "renounceOwnership",
      "outputs": [],
      "stateMutability": "nonpayable",
      "type": "function"
    },
    {
      "inputs": [
        {
          "internalType": "uint256",
          "name": "blockHeight",
          "type": "uint256"
        }
      ],
      "name": "setStartBlockHeight",
      "outputs": [],
      "stateMutability": "nonpayable",
      "type": "function"
    },
    {
      "inputs": [],
      "name": "startBlockHeight",
      "outputs": [
        {
          "internalType": "uint256",
          "name": "",
          "type": "uint256"
        }
      ],
      "stateMutability": "view",
      "type": "function"
    },
    {
      "inputs": [],
      "name": "token",
      "outputs": [
        {
          "internalType": "contract IERC20",
          "name": "",
          "type": "address"
        }
      ],
      "stateMutability": "view",
      "type": "function"
    },
    {
      "inputs": [
        {
          "internalType": "address",
          "name": "newOwner",
          "type": "address"
        }
      ],
      "name": "transferOwnership",
      "outputs": [],
      "stateMutability": "nonpayable",
      "type": "function"
    },
    {
      "inputs": [],
      "name": "vested",
      "outputs": [
        {
          "internalType": "contract IVested",
          "name": "",
          "type": "address"
        }
      ],
      "stateMutability": "view",
      "type": "function"
    }
  ],
  "bytecode": "60c06040523480156200001157600080fd5b50604051620015923803806200159283398101604081905262000034916200015e565b600080546001600160a01b031916339081178255604051909182917f8be0079c531659141344cd1fd0a4f28419497f9722a3daafe3b4186f6b6457e0908290a3506001600160a01b038216620000d15760405162461bcd60e51b815260206004820152601d60248201527f546f6b656e20616464726573732063616e6e6f74206265207a65726f2e00000060448201526064015b60405180910390fd5b6001600160a01b038116620001295760405162461bcd60e51b815260206004820152601e60248201527f56657374656420616464726573732063616e6e6f74206265207a65726f2e00006044820152606401620000c8565b6001600160a01b039182166080521660a05262000196565b80516001600160a01b03811681146200015957600080fd5b919050565b600080604083850312156200017257600080fd5b6200017d8362000141565b91506200018d6020840162000141565b90509250929050565b60805160a0516113ba620001d86000396000818161031d01528181610cae0152610d680152600081816102ed015281816107780152610ba901526113ba6000f3fe608060405234801561001057600080fd5b50600436106101425760003560e01c80638f0c86fa116100b8578063ac8a584a1161007c578063ac8a584a146102ba578063b97dd9e2146102cd578063f2fde38b146102d5578063fc0c546a146102e8578063fc9dc4ff1461030f578063fea5657c1461031857600080fd5b80638f0c86fa1461024b57806391c05b0b1461026e5780639870d7fe14610281578063a583024b14610294578063ac5432df146102a757600080fd5b8063715018a61161010a578063715018a6146101db5780637250e224146101e357806374c259c6146101f657806376671808146101fe578063828df5ee146102065780638da5cb5b1461022657600080fd5b80631e83409a1461014757806330f3928a1461015c57806357c1f9e2146101825780636aa8405f146101955780636d70f7ae146101a8575b600080fd5b61015a610155366004611169565b61033f565b005b61016f61016a366004611192565b6103c7565b6040519081526020015b60405180910390f35b61015a610190366004611169565b61043d565b61016f6101a3366004611192565b6104e2565b6101cb6101b6366004611169565b60056020526000908152604090205460ff1681565b6040519015158152602001610179565b61015a610503565b61015a6101f1366004611169565b610577565b61016f600a81565b60025461016f565b61016f610214366004611169565b60036020526000908152604090205481565b6000546001600160a01b03165b6040516001600160a01b039091168152602001610179565b6101cb610259366004611169565b60046020526000908152604090205460ff1681565b61015a61027c366004611192565b61061d565b61015a61028f366004611169565b6107a3565b61016f6102a2366004611169565b61084a565b61015a6102b5366004611192565b610885565b61015a6102c8366004611169565b610904565b61016f6109a3565b61015a6102e3366004611169565b610a17565b6102337f000000000000000000000000000000000000000000000000000000000000000081565b61016f60015481565b6102337f000000000000000000000000000000000000000000000000000000000000000081565b6001600160a01b038116331461039c5760405162461bcd60e51b815260206004820152601e60248201527f43616e206f6e6c7920636c61696d20666f72206f776e206163636f756e74000060448201526064015b60405180910390fd5b60006103a760025490565b905080156103c3576103c3826103be836001610b01565b610b14565b5050565b600080546001600160a01b03163314806103f057503360009081526005602052604090205460ff165b61042e5760405162461bcd60e51b815260206004820152600f60248201526e4e6f7420617574686f72697a65642160881b6044820152606401610393565b61043782610bd6565b92915050565b6000546001600160a01b031633146104675760405162461bcd60e51b8152600401610393906111ab565b6001600160a01b03811661048d5760405162461bcd60e51b8152600401610393906111e0565b6001600160a01b0381166000818152600460209081526040808320805460ff19169055519182527e1c2d2cf3abe61110ec31c39e6b778412525790f022085d2c3318837202ccfe91015b60405180910390a250565b600281815481106104f257600080fd5b600091825260209091200154905081565b6000546001600160a01b0316331461052d5760405162461bcd60e51b8152600401610393906111ab565b600080546040516001600160a01b03909116907f8be0079c531659141344cd1fd0a4f28419497f9722a3daafe3b4186f6b6457e0908390a3600080546001600160a01b0319169055565b6000546001600160a01b031633146105a15760405162461bcd60e51b8152600401610393906111ab565b6001600160a01b0381166105c75760405162461bcd60e51b8152600401610393906111e0565b6001600160a01b038116600081815260046020908152604091829020805460ff1916600190811790915591519182527e1c2d2cf3abe61110ec31c39e6b778412525790f022085d2c3318837202ccfe91016104d7565b6000546001600160a01b031633148061064557503360009081526004602052604090205460ff165b6106915760405162461bcd60e51b815260206004820152601b60248201527f4469737472696275746f72206e6f7420617574686f72697a65642100000000006044820152606401610393565b600081116106fd5760405162461bcd60e51b815260206004820152603360248201527f416d6f756e7420746f206265206469737472696275746564206d7573742062656044820152722067726561746572207468616e207a65726f2160681b6064820152608401610393565b600280546001810182556000919091527f405787fa12a823e0f2b7631cc41b3ba8828b3321ca811111fa75cd3aa3bb5ace0181905560408051338152602081018390527fc1d32ad5cca423e7dda2123dbf8c482f8e77d00b631c06e903a47f2cec1334df910160405180910390a16107a06001600160a01b037f000000000000000000000000000000000000000000000000000000000000000016333084610bef565b50565b6000546001600160a01b031633146107cd5760405162461bcd60e51b8152600401610393906111ab565b6001600160a01b0381166107f35760405162461bcd60e51b8152600401610393906111e0565b6001600160a01b038116600081815260056020908152604091829020805460ff1916600190811790915591519182527f5dcc54de76a00f463c78ab7c4546b9d243502fb27ac63cc6df71a88b21aad18691016104d7565b60008061085660025490565b9050806108665750600092915050565b600061087c84610877846001610b01565b610c5a565b50949350505050565b6000546001600160a01b031633146108af5760405162461bcd60e51b8152600401610393906111ab565b600154156108ff5760405162461bcd60e51b815260206004820152601f60248201527f537461727420626c6f636b2068656967687420616c72656164792073657421006044820152606401610393565b600155565b6000546001600160a01b0316331461092e5760405162461bcd60e51b8152600401610393906111ab565b6001600160a01b0381166109545760405162461bcd60e51b8152600401610393906111e0565b6001600160a01b0381166000818152600560209081526040808320805460ff19169055519182527f5dcc54de76a00f463c78ab7c4546b9d243502fb27ac63cc6df71a88b21aad18691016104d7565b600080546001600160a01b03163314806109cc57503360009081526005602052604090205460ff165b610a0a5760405162461bcd60e51b815260206004820152600f60248201526e4e6f7420617574686f72697a65642160881b6044820152606401610393565b610a12610e50565b905090565b6000546001600160a01b03163314610a415760405162461bcd60e51b8152600401610393906111ab565b6001600160a01b038116610aa65760405162461bcd60e51b815260206004820152602660248201527f4f776e61626c653a206e6577206f776e657220697320746865207a65726f206160448201526564647265737360d01b6064820152608401610393565b600080546040516001600160a01b03808516939216917f8be0079c531659141344cd1fd0a4f28419497f9722a3daafe3b4186f6b6457e091a3600080546001600160a01b0319166001600160a01b0392909216919091179055565b6000610b0d828461122d565b9392505050565b600080610b218484610c5a565b9092509050610b31816001610ec6565b6001600160a01b0385166000908152600360205260409020558115610bd05760408051838152602081018390529081018490526001600160a01b038516907f45c072aa05b9853b5a993de7a28bc332ee01404a628cec1a23ce0f659f842ef19060600160405180910390a2610bd06001600160a01b037f0000000000000000000000000000000000000000000000000000000000000000168584610ed2565b50505050565b6000610437610be6600a84610f07565b60015490610ec6565b6040516001600160a01b0380851660248301528316604482015260648101829052610bd09085906323b872dd60e01b906084015b60408051601f198184030181529190526020810180516001600160e01b03166001600160e01b031990931692909217909152610f13565b6001600160a01b0382166000908152600360205260408120548190819081805b868311610e3557610c8a83610bd6565b9150814311610c9857610e35565b604051630981b24d60e41b8152600481018390527f00000000000000000000000000000000000000000000000000000000000000006001600160a01b03169063981b24d09060240160206040518083038186803b158015610cf857600080fd5b505afa158015610d0c573d6000803e3d6000fd5b505050506040513d601f19601f82011682018060405250810190610d309190611244565b90508015610e235760405163277166bf60e11b81526001600160a01b03898116600483015260248201849052610e16918391610e10917f000000000000000000000000000000000000000000000000000000000000000090911690634ee2cd7e9060440160206040518083038186803b158015610dac57600080fd5b505afa158015610dc0573d6000803e3d6000fd5b505050506040513d601f19601f82011682018060405250810190610de49190611244565b60028781548110610df757610df761125d565b9060005260206000200154610f0790919063ffffffff16565b90610fe5565b610e209085611273565b93505b82610e2d8161128b565b935050610c7a565b83610e4160018561122d565b95509550505050509250929050565b6000600154431015610eb35760405162461bcd60e51b815260206004820152602660248201527f546865207061796f757420636f6e7472616374206973206e6f742073746172746044820152651959081e595d60d21b6064820152608401610393565b610a12600a60015443610e10919061122d565b6000610b0d8284611273565b6040516001600160a01b038316602482015260448101829052610f0290849063a9059cbb60e01b90606401610c23565b505050565b6000610b0d82846112a6565b6000610f68826040518060400160405280602081526020017f5361666545524332303a206c6f772d6c6576656c2063616c6c206661696c6564815250856001600160a01b0316610ff19092919063ffffffff16565b805190915015610f025780806020019051810190610f8691906112c5565b610f025760405162461bcd60e51b815260206004820152602a60248201527f5361666545524332303a204552433230206f7065726174696f6e20646964206e6044820152691bdd081cdd58d8d9595960b21b6064820152608401610393565b6000610b0d82846112e7565b60606110008484600085611008565b949350505050565b6060824710156110695760405162461bcd60e51b815260206004820152602660248201527f416464726573733a20696e73756666696369656e742062616c616e636520666f6044820152651c8818d85b1b60d21b6064820152608401610393565b843b6110b75760405162461bcd60e51b815260206004820152601d60248201527f416464726573733a2063616c6c20746f206e6f6e2d636f6e74726163740000006044820152606401610393565b600080866001600160a01b031685876040516110d39190611335565b60006040518083038185875af1925050503d8060008114611110576040519150601f19603f3d011682016040523d82523d6000602084013e611115565b606091505b5091509150611125828286611130565b979650505050505050565b6060831561113f575081610b0d565b82511561114f5782518084602001fd5b8160405162461bcd60e51b81526004016103939190611351565b60006020828403121561117b57600080fd5b81356001600160a01b0381168114610b0d57600080fd5b6000602082840312156111a457600080fd5b5035919050565b6020808252818101527f4f776e61626c653a2063616c6c6572206973206e6f7420746865206f776e6572604082015260600190565b6020808252601e908201527f4163636f756e7420616464726573732063616e6e6f74206265207a65726f0000604082015260600190565b634e487b7160e01b600052601160045260246000fd5b60008282101561123f5761123f611217565b500390565b60006020828403121561125657600080fd5b5051919050565b634e487b7160e01b600052603260045260246000fd5b6000821982111561128657611286611217565b500190565b600060001982141561129f5761129f611217565b5060010190565b60008160001904831182151516156112c0576112c0611217565b500290565b6000602082840312156112d757600080fd5b81518015158114610b0d57600080fd5b60008261130457634e487b7160e01b600052601260045260246000fd5b500490565b60005b8381101561132457818101518382015260200161130c565b83811115610bd05750506000910152565b60008251611347818460208701611309565b9190910192915050565b6020815260008251806020840152611370816040850160208701611309565b601f01601f1916919091016040019291505056fea26469706673582212207c1490bd8580d53ba2cf995bd41a181a5fbf104931954dc7c9e6a205885b1ed864736f6c63430008090033",
  "bytecodeSha1": "7d54e0fc245000e502f1bf830c2166fed6bda370",
  "compiler": {
    "evm_version": "istanbul",
    "optimizer": {
      "enabled": true,
      "runs": 200
    },
    "version": "0.8.9+commit.e5eed63a"
  },
  "contractName": "DailyPayout",
  "language": "Solidity",
  "natspec": {
    "kind": "dev",
    "methods": {
      "currentEpoch()": {
        "details": "   This is not current epoch, but rather the number of claimable epochs.   Name not changed for the sake of compatibility with former implementation."
      },
      "getCurrentEpoch()": {
        "details": "get current epoch"
      },
      "getEpochStartBlockHeight(uint256)": {
        "details": "get epoch start block height"
      },
      "owner()": {
        "details": "Returns the address of the current owner."
      },
      "renounceOwnership()": {
        "details": "Leaves the contract without owner. It will not be possible to call `onlyOwner` functions anymore. Can only be called by the current owner. NOTE: Renouncing ownership will leave the contract without an owner, thereby removing any functionality that is only available to the owner."
      },
      "transferOwnership(address)": {
        "details": "Transfers ownership of the contract to a new account (`newOwner`). Can only be called by the current owner."
      }
    },
    "version": 1
  },
  "opcodes": "PUSH1 0x80 PUSH1 0x40 MSTORE CALLVALUE DUP1 ISZERO PUSH2 0x10 JUMPI PUSH1 0x0 DUP1 REVERT JUMPDEST POP PUSH1 0x4 CALLDATASIZE LT PUSH2 0x142 JUMPI PUSH1 0x0 CALLDATALOAD PUSH1 0xE0 SHR DUP1 PUSH4 0x8F0C86FA GT PUSH2 0xB8 JUMPI DUP1 PUSH4 0xAC8A584A GT PUSH2 0x7C JUMPI DUP1 PUSH4 0xAC8A584A EQ PUSH2 0x2BA JUMPI DUP1 PUSH4 0xB97DD9E2 EQ PUSH2 0x2CD JUMPI DUP1 PUSH4 0xF2FDE38B EQ PUSH2 0x2D5 JUMPI DUP1 PUSH4 0xFC0C546A EQ PUSH2 0x2E8 JUMPI DUP1 PUSH4 0xFC9DC4FF EQ PUSH2 0x30F JUMPI DUP1 PUSH4 0xFEA5657C EQ PUSH2 0x318 JUMPI PUSH1 0x0 DUP1 REVERT JUMPDEST DUP1 PUSH4 0x8F0C86FA EQ PUSH2 0x24B JUMPI DUP1 PUSH4 0x91C05B0B EQ PUSH2 0x26E JUMPI DUP1 PUSH4 0x9870D7FE EQ PUSH2 0x281 JUMPI DUP1 PUSH4 0xA583024B EQ PUSH2 0x294 JUMPI DUP1 PUSH4 0xAC5432DF EQ PUSH2 0x2A7 JUMPI PUSH1 0x0 DUP1 REVERT JUMPDEST DUP1 PUSH4 0x715018A6 GT PUSH2 0x10A JUMPI DUP1 PUSH4 0x715018A6 EQ PUSH2 0x1DB JUMPI DUP1 PUSH4 0x7250E224 EQ PUSH2 0x1E3 JUMPI DUP1 PUSH4 0x74C259C6 EQ PUSH2 0x1F6 JUMPI DUP1 PUSH4 0x76671808 EQ PUSH2 0x1FE JUMPI DUP1 PUSH4 0x828DF5EE EQ PUSH2 0x206 JUMPI DUP1 PUSH4 0x8DA5CB5B EQ PUSH2 0x226 JUMPI PUSH1 0x0 DUP1 REVERT JUMPDEST DUP1 PUSH4 0x1E83409A EQ PUSH2 0x147 JUMPI DUP1 PUSH4 0x30F3928A EQ PUSH2 0x15C JUMPI DUP1 PUSH4 0x57C1F9E2 EQ PUSH2 0x182 JUMPI DUP1 PUSH4 0x6AA8405F EQ PUSH2 0x195 JUMPI DUP1 PUSH4 0x6D70F7AE EQ PUSH2 0x1A8 JUMPI JUMPDEST PUSH1 0x0 DUP1 REVERT JUMPDEST PUSH2 0x15A PUSH2 0x155 CALLDATASIZE PUSH1 0x4 PUSH2 0x1169 JUMP JUMPDEST PUSH2 0x33F JUMP JUMPDEST STOP JUMPDEST PUSH2 0x16F PUSH2 0x16A CALLDATASIZE PUSH1 0x4 PUSH2 0x1192 JUMP JUMPDEST PUSH2 0x3C7 JUMP JUMPDEST PUSH1 0x40 MLOAD SWAP1 DUP2 MSTORE PUSH1 0x20 ADD JUMPDEST PUSH1 0x40 MLOAD DUP1 SWAP2 SUB SWAP1 RETURN JUMPDEST PUSH2 0x15A PUSH2 0x190 CALLDATASIZE PUSH1 0x4 PUSH2 0x1169 JUMP JUMPDEST PUSH2 0x43D JUMP JUMPDEST PUSH2 0x16F PUSH2 0x1A3 CALLDATASIZE PUSH1 0x4 PUSH2 0x1192 JUMP JUMPDEST PUSH2 0x4E2 JUMP JUMPDEST PUSH2 0x1CB PUSH2 0x1B6 CALLDATASIZE PUSH1 0x4 PUSH2 0x1169 JUMP JUMPDEST PUSH1 0x5 PUSH1 0x20 MSTORE PUSH1 0x0 SWAP1 DUP2 MSTORE PUSH1 0x40 SWAP1 KECCAK256 SLOAD PUSH1 0xFF AND DUP2 JUMP JUMPDEST PUSH1 0x40 MLOAD SWAP1 ISZERO ISZERO DUP2 MSTORE PUSH1 0x20 ADD PUSH2 0x179 JUMP JUMPDEST PUSH2 0x15A PUSH2 0x503 JUMP JUMPDEST PUSH2 0x15A PUSH2 0x1F1 CALLDATASIZE PUSH1 0x4 PUSH2 0x1169 JUMP JUMPDEST PUSH2 0x577 JUMP JUMPDEST PUSH2 0x16F PUSH1 0xA DUP2 JUMP JUMPDEST PUSH1 0x2 SLOAD PUSH2 0x16F JUMP JUMPDEST PUSH2 0x16F PUSH2 0x214 CALLDATASIZE PUSH1 0x4 PUSH2 0x1169 JUMP JUMPDEST PUSH1 0x3 PUSH1 0x20 MSTORE PUSH1 0x0 SWAP1 DUP2 MSTORE PUSH1 0x40 SWAP1 KECCAK256 SLOAD DUP2 JUMP JUMPDEST PUSH1 0x0 SLOAD PUSH1 0x1 PUSH1 0x1 PUSH1 0xA0 SHL SUB AND JUMPDEST PUSH1 0x40 MLOAD PUSH1 0x1 PUSH1 0x1 PUSH1 0xA0 SHL SUB SWAP1 SWAP2 AND DUP2 MSTORE PUSH1 0x20 ADD PUSH2 0x179 JUMP JUMPDEST PUSH2 0x1CB PUSH2 0x259 CALLDATASIZE PUSH1 0x4 PUSH2 0x1169 JUMP JUMPDEST PUSH1 0x4 PUSH1 0x20 MSTORE PUSH1 0x0 SWAP1 DUP2 MSTORE PUSH1 0x40 SWAP1 KECCAK256 SLOAD PUSH1 0xFF AND DUP2 JUMP JUMPDEST PUSH2 0x15A PUSH2 0x27C CALLDATASIZE PUSH1 0x4 PUSH2 0x1192 JUMP JUMPDEST PUSH2 0x61D JUMP JUMPDEST PUSH2 0x15A PUSH2 0x28F CALLDATASIZE PUSH1 0x4 PUSH2 0x1169 JUMP JUMPDEST PUSH2 0x7A3 JUMP JUMPDEST PUSH2 0x16F PUSH2 0x2A2 CALLDATASIZE PUSH1 0x4 PUSH2 0x1169 JUMP JUMPDEST PUSH2 0x84A JUMP JUMPDEST PUSH2 0x15A PUSH2 0x2B5 CALLDATASIZE PUSH1 0x4 PUSH2 0x1192 JUMP JUMPDEST PUSH2 0x885 JUMP JUMPDEST PUSH2 0x15A PUSH2 0x2C8 CALLDATASIZE PUSH1 0x4 PUSH2 0x1169 JUMP JUMPDEST PUSH2 0x904 JUMP JUMPDEST PUSH2 0x16F PUSH2 0x9A3 JUMP JUMPDEST PUSH2 0x15A PUSH2 0x2E3 CALLDATASIZE PUSH1 0x4 PUSH2 0x1169 JUMP JUMPDEST PUSH2 0xA17 JUMP JUMPDEST PUSH2 0x233 PUSH32 0x0 DUP2 JUMP JUMPDEST PUSH2 0x16F PUSH1 0x1 SLOAD DUP2 JUMP JUMPDEST PUSH2 0x233 PUSH32 0x0 DUP2 JUMP JUMPDEST PUSH1 0x1 PUSH1 0x1 PUSH1 0xA0 SHL SUB DUP2 AND CALLER EQ PUSH2 0x39C JUMPI PUSH1 0x40 MLOAD PUSH3 0x461BCD PUSH1 0xE5 SHL DUP2 MSTORE PUSH1 0x20 PUSH1 0x4 DUP3 ADD MSTORE PUSH1 0x1E PUSH1 0x24 DUP3 ADD MSTORE PUSH32 0x43616E206F6E6C7920636C61696D20666F72206F776E206163636F756E740000 PUSH1 0x44 DUP3 ADD MSTORE PUSH1 0x64 ADD JUMPDEST PUSH1 0x40 MLOAD DUP1 SWAP2 SUB SWAP1 REVERT JUMPDEST PUSH1 0x0 PUSH2 0x3A7 PUSH1 0x2 SLOAD SWAP1 JUMP JUMPDEST SWAP1 POP DUP1 ISZERO PUSH2 0x3C3 JUMPI PUSH2 0x3C3 DUP3 PUSH2 0x3BE DUP4 PUSH1 0x1 PUSH2 0xB01 JUMP JUMPDEST PUSH2 0xB14 JUMP JUMPDEST POP POP JUMP JUMPDEST PUSH1 0x0 DUP1 SLOAD PUSH1 0x1 PUSH1 0x1 PUSH1 0xA0 SHL SUB AND CALLER EQ DUP1 PUSH2 0x3F0 JUMPI POP CALLER PUSH1 0x0 SWAP1 DUP2 MSTORE PUSH1 0x5 PUSH1 0x20 MSTORE PUSH1 0x40 SWAP1 KECCAK256 SLOAD PUSH1 0xFF AND JUMPDEST PUSH2 0x42E JUMPI PUSH1 0x40 MLOAD PUSH3 0x461BCD PUSH1 0xE5 SHL DUP2 MSTORE PUSH1 0x20 PUSH1 0x4 DUP3 ADD MSTORE PUSH1 0xF PUSH1 0x24 DUP3 ADD MSTORE PUSH15 0x4E6F7420617574686F72697A656421 PUSH1 0x88 SHL PUSH1 0x44 DUP3 ADD MSTORE PUSH1 0x64 ADD PUSH2 0x393 JUMP JUMPDEST PUSH2 0x437 DUP3 PUSH2 0xBD6 JUMP JUMPDEST SWAP3 SWAP2 POP POP JUMP JUMPDEST PUSH1 0x0 SLOAD PUSH1 0x1 PUSH1 0x1 PUSH1 0xA0 SHL SUB AND CALLER EQ PUSH2 0x467 JUMPI PUSH1 0x40 MLOAD PUSH3 0x461BCD PUSH1 0xE5 SHL DUP2 MSTORE PUSH1 0x4 ADD PUSH2 0x393 SWAP1 PUSH2 0x11AB JUMP JUMPDEST PUSH1 0x1 PUSH1 0x1 PUSH1 0xA0 SHL SUB DUP2 AND PUSH2 0x48D JUMPI PUSH1 0x40 MLOAD PUSH3 0x461BCD PUSH1 0xE5 SHL DUP2 MSTORE PUSH1 0x4 ADD PUSH2 0x393 SWAP1 PUSH2 0x11E0 JUMP JUMPDEST PUSH1 0x1 PUSH1 0x1 PUSH1 0xA0 SHL SUB DUP2 AND PUSH1 0x0 DUP2 DUP2 MSTORE PUSH1 0x4 PUSH1 0x20 SWAP1 DUP2 MSTORE PUSH1 0x40 DUP1 DUP4 KECCAK256 DUP1 SLOAD PUSH1 0xFF NOT AND SWAP1 SSTORE MLOAD SWAP2 DUP3 MSTORE PUSH31 0x1C2D2CF3ABE61110EC31C39E6B778412525790F022085D2C3318837202CCFE SWAP2 ADD JUMPDEST PUSH1 0x40 MLOAD DUP1 SWAP2 SUB SWAP1 LOG2 POP JUMP JUMPDEST PUSH1 0x2 DUP2 DUP2 SLOAD DUP2 LT PUSH2 0x4F2 JUMPI PUSH1 0x0 DUP1 REVERT JUMPDEST PUSH1 0x0 SWAP2 DUP3 MSTORE PUSH1 0x20 SWAP1 SWAP2 KECCAK256 ADD SLOAD SWAP1 POP DUP2 JUMP JUMPDEST PUSH1 0x0 SLOAD PUSH1 0x1 PUSH1 0x1 PUSH1 0xA0 SHL SUB AND CALLER EQ PUSH2 0x52D JUMPI PUSH1 0x40 MLOAD PUSH3 0x461BCD PUSH1 0xE5 SHL DUP2 MSTORE PUSH1 0x4 ADD PUSH2 0x393 SWAP1 PUSH2 0x11AB JUMP JUMPDEST PUSH1 0x0 DUP1 SLOAD PUSH1 0x40 MLOAD PUSH1 0x1 PUSH1 0x1 PUSH1 0xA0 SHL SUB SWAP1 SWAP2 AND SWAP1 PUSH32 0x8BE0079C531659141344CD1FD0A4F28419497F9722A3DAAFE3B4186F6B6457E0 SWAP1 DUP4 SWAP1 LOG3 PUSH1 0x0 DUP1 SLOAD PUSH1 0x1 PUSH1 0x1 PUSH1 0xA0 SHL SUB NOT AND SWAP1 SSTORE JUMP JUMPDEST PUSH1 0x0 SLOAD PUSH1 0x1 PUSH1 0x1 PUSH1 0xA0 SHL SUB AND CALLER EQ PUSH2 0x5A1 JUMPI PUSH1 0x40 MLOAD PUSH3 0x461BCD PUSH1 0xE5 SHL DUP2 MSTORE PUSH1 0x4 ADD PUSH2 0x393 SWAP1 PUSH2 0x11AB JUMP JUMPDEST PUSH1 0x1 PUSH1 0x1 PUSH1 0xA0 SHL SUB DUP2 AND PUSH2 0x5C7 JUMPI PUSH1 0x40 MLOAD PUSH3 0x461BCD PUSH1 0xE5 SHL DUP2 MSTORE PUSH1 0x4 ADD PUSH2 0x393 SWAP1 PUSH2 0x11E0 JUMP JUMPDEST PUSH1 0x1 PUSH1 0x1 PUSH1 0xA0 SHL SUB DUP2 AND PUSH1 0x0 DUP2 DUP2 MSTORE PUSH1 0x4 PUSH1 0x20 SWAP1 DUP2 MSTORE PUSH1 0x40 SWAP2 DUP3 SWAP1 KECCAK256 DUP1 SLOAD PUSH1 0xFF NOT AND PUSH1 0x1 SWAP1 DUP2 OR SWAP1 SWAP2 SSTORE SWAP2 MLOAD SWAP2 DUP3 MSTORE PUSH31 0x1C2D2CF3ABE61110EC31C39E6B778412525790F022085D2C3318837202CCFE SWAP2 ADD PUSH2 0x4D7 JUMP JUMPDEST PUSH1 0x0 SLOAD PUSH1 0x1 PUSH1 0x1 PUSH1 0xA0 SHL SUB AND CALLER EQ DUP1 PUSH2 0x645 JUMPI POP CALLER PUSH1 0x0 SWAP1 DUP2 MSTORE PUSH1 0x4 PUSH1 0x20 MSTORE PUSH1 0x40 SWAP1 KECCAK256 SLOAD PUSH1 0xFF AND JUMPDEST PUSH2 0x691 JUMPI PUSH1 0x40 MLOAD PUSH3 0x461BCD PUSH1 0xE5 SHL DUP2 MSTORE PUSH1 0x20 PUSH1 0x4 DUP3 ADD MSTORE PUSH1 0x1B PUSH1 0x24 DUP3 ADD MSTORE PUSH32 0x4469737472696275746F72206E6F7420617574686F72697A6564210000000000 PUSH1 0x44 DUP3 ADD MSTORE PUSH1 0x64 ADD PUSH2 0x393 JUMP JUMPDEST PUSH1 0x0 DUP2 GT PUSH2 0x6FD JUMPI PUSH1 0x40 MLOAD PUSH3 0x461BCD PUSH1 0xE5 SHL DUP2 MSTORE PUSH1 0x20 PUSH1 0x4 DUP3 ADD MSTORE PUSH1 0x33 PUSH1 0x24 DUP3 ADD MSTORE PUSH32 0x416D6F756E7420746F206265206469737472696275746564206D757374206265 PUSH1 0x44 DUP3 ADD MSTORE PUSH19 0x2067726561746572207468616E207A65726F21 PUSH1 0x68 SHL PUSH1 0x64 DUP3 ADD MSTORE PUSH1 0x84 ADD PUSH2 0x393 JUMP JUMPDEST PUSH1 0x2 DUP1 SLOAD PUSH1 0x1 DUP2 ADD DUP3 SSTORE PUSH1 0x0 SWAP2 SWAP1 SWAP2 MSTORE PUSH32 0x405787FA12A823E0F2B7631CC41B3BA8828B3321CA811111FA75CD3AA3BB5ACE ADD DUP2 SWAP1 SSTORE PUSH1 0x40 DUP1 MLOAD CALLER DUP2 MSTORE PUSH1 0x20 DUP2 ADD DUP4 SWAP1 MSTORE PUSH32 0xC1D32AD5CCA423E7DDA2123DBF8C482F8E77D00B631C06E903A47F2CEC1334DF SWAP2 ADD PUSH1 0x40 MLOAD DUP1 SWAP2 SUB SWAP1 LOG1 PUSH2 0x7A0 PUSH1 0x1 PUSH1 0x1 PUSH1 0xA0 SHL SUB PUSH32 0x0 AND CALLER ADDRESS DUP5 PUSH2 0xBEF JUMP JUMPDEST POP JUMP JUMPDEST PUSH1 0x0 SLOAD PUSH1 0x1 PUSH1 0x1 PUSH1 0xA0 SHL SUB AND CALLER EQ PUSH2 0x7CD JUMPI PUSH1 0x40 MLOAD PUSH3 0x461BCD PUSH1 0xE5 SHL DUP2 MSTORE PUSH1 0x4 ADD PUSH2 0x393 SWAP1 PUSH2 0x11AB JUMP JUMPDEST PUSH1 0x1 PUSH1 0x1 PUSH1 0xA0 SHL SUB DUP2 AND PUSH2 0x7F3 JUMPI PUSH1 0x40 MLOAD PUSH3 0x461BCD PUSH1 0xE5 SHL DUP2 MSTORE PUSH1 0x4 ADD PUSH2 0x393 SWAP1 PUSH2 0x11E0 JUMP JUMPDEST PUSH1 0x1 PUSH1 0x1 PUSH1 0xA0 SHL SUB DUP2 AND PUSH1 0x0 DUP2 DUP2 MSTORE PUSH1 0x5 PUSH1 0x20 SWAP1 DUP2 MSTORE PUSH1 0x40 SWAP2 DUP3 SWAP1 KECCAK256 DUP1 SLOAD PUSH1 0xFF NOT AND PUSH1 0x1 SWAP1 DUP2 OR SWAP1 SWAP2 SSTORE SWAP2 MLOAD SWAP2 DUP3 MSTORE PUSH32 0x5DCC54DE76A00F463C78AB7C4546B9D243502FB27AC63CC6DF71A88B21AAD186 SWAP2 ADD PUSH2 0x4D7 JUMP JUMPDEST PUSH1 0x0 DUP1 PUSH2 0x856 PUSH1 0x2 SLOAD SWAP1 JUMP JUMPDEST SWAP1 POP DUP1 PUSH2 0x866 JUMPI POP PUSH1 0x0 SWAP3 SWAP2 POP POP JUMP JUMPDEST PUSH1 0x0 PUSH2 0x87C DUP5 PUSH2 0x877 DUP5 PUSH1 0x1 PUSH2 0xB01 JUMP JUMPDEST PUSH2 0xC5A JUMP JUMPDEST POP SWAP5 SWAP4 POP POP POP POP JUMP JUMPDEST PUSH1 0x0 SLOAD PUSH1 0x1 PUSH1 0x1 PUSH1 0xA0 SHL SUB AND CALLER EQ PUSH2 0x8AF JUMPI PUSH1 0x40 MLOAD PUSH3 0x461BCD PUSH1 0xE5 SHL DUP2 MSTORE PUSH1 0x4 ADD PUSH2 0x393 SWAP1 PUSH2 0x11AB JUMP JUMPDEST PUSH1 0x1 SLOAD ISZERO PUSH2 0x8FF JUMPI PUSH1 0x40 MLOAD PUSH3 0x461BCD PUSH1 0xE5 SHL DUP2 MSTORE PUSH1 0x20 PUSH1 0x4 DUP3 ADD MSTORE PUSH1 0x1F PUSH1 0x24 DUP3 ADD MSTORE PUSH32 0x537461727420626C6F636B2068656967687420616C7265616479207365742100 PUSH1 0x44 DUP3 ADD MSTORE PUSH1 0x64 ADD PUSH2 0x393 JUMP JUMPDEST PUSH1 0x1 SSTORE JUMP JUMPDEST PUSH1 0x0 SLOAD PUSH1 0x1 PUSH1 0x1 PUSH1 0xA0 SHL SUB AND CALLER EQ PUSH2 0x92E JUMPI PUSH1 0x40 MLOAD PUSH3 0x461BCD PUSH1 0xE5 SHL DUP2 MSTORE PUSH1 0x4 ADD PUSH2 0x393 SWAP1 PUSH2 0x11AB JUMP JUMPDEST PUSH1 0x1 PUSH1 0x1 PUSH1 0xA0 SHL SUB DUP2 AND PUSH2 0x954 JUMPI PUSH1 0x40 MLOAD PUSH3 0x461BCD PUSH1 0xE5 SHL DUP2 MSTORE PUSH1 0x4 ADD PUSH2 0x393 SWAP1 PUSH2 0x11E0 JUMP JUMPDEST PUSH1 0x1 PUSH1 0x1 PUSH1 0xA0 SHL SUB DUP2 AND PUSH1 0x0 DUP2 DUP2 MSTORE PUSH1 0x5 PUSH1 0x20 SWAP1 DUP2 MSTORE PUSH1 0x40 DUP1 DUP4 KECCAK256 DUP1 SLOAD PUSH1 0xFF NOT AND SWAP1 SSTORE MLOAD SWAP2 DUP3 MSTORE PUSH32 0x5DCC54DE76A00F463C78AB7C4546B9D243502FB27AC63CC6DF71A88B21AAD186 SWAP2 ADD PUSH2 0x4D7 JUMP JUMPDEST PUSH1 0x0 DUP1 SLOAD PUSH1 0x1 PUSH1 0x1 PUSH1 0xA0 SHL SUB AND CALLER EQ DUP1 PUSH2 0x9CC JUMPI POP CALLER PUSH1 0x0 SWAP1 DUP2 MSTORE PUSH1 0x5 PUSH1 0x20 MSTORE PUSH1 0x40 SWAP1 KECCAK256 SLOAD PUSH1 0xFF AND JUMPDEST PUSH2 0xA0A JUMPI PUSH1 0x40 MLOAD PUSH3 0x461BCD PUSH1 0xE5 SHL DUP2 MSTORE PUSH1 0x20 PUSH1 0x4 DUP3 ADD MSTORE PUSH1 0xF PUSH1 0x24 DUP3 ADD MSTORE PUSH15 0x4E6F7420617574686F72697A656421 PUSH1 0x88 SHL PUSH1 0x44 DUP3 ADD MSTORE PUSH1 0x64 ADD PUSH2 0x393 JUMP JUMPDEST PUSH2 0xA12 PUSH2 0xE50 JUMP JUMPDEST SWAP1 POP SWAP1 JUMP JUMPDEST PUSH1 0x0 SLOAD PUSH1 0x1 PUSH1 0x1 PUSH1 0xA0 SHL SUB AND CALLER EQ PUSH2 0xA41 JUMPI PUSH1 0x40 MLOAD PUSH3 0x461BCD PUSH1 0xE5 SHL DUP2 MSTORE PUSH1 0x4 ADD PUSH2 0x393 SWAP1 PUSH2 0x11AB JUMP JUMPDEST PUSH1 0x1 PUSH1 0x1 PUSH1 0xA0 SHL SUB DUP2 AND PUSH2 0xAA6 JUMPI PUSH1 0x40 MLOAD PUSH3 0x461BCD PUSH1 0xE5 SHL DUP2 MSTORE PUSH1 0x20 PUSH1 0x4 DUP3 ADD MSTORE PUSH1 0x26 PUSH1 0x24 DUP3 ADD MSTORE PUSH32 0x4F776E61626C653A206E6577206F776E657220697320746865207A65726F2061 PUSH1 0x44 DUP3 ADD MSTORE PUSH6 0x646472657373 PUSH1 0xD0 SHL PUSH1 0x64 DUP3 ADD MSTORE PUSH1 0x84 ADD PUSH2 0x393 JUMP JUMPDEST PUSH1 0x0 DUP1 SLOAD PUSH1 0x40 MLOAD PUSH1 0x1 PUSH1 0x1 PUSH1 0xA0 SHL SUB DUP1 DUP6 AND SWAP4 SWAP3 AND SWAP2 PUSH32 0x8BE0079C531659141344CD1FD0A4F28419497F9722A3DAAFE3B4186F6B6457E0 SWAP2 LOG3 PUSH1 0x0 DUP1 SLOAD PUSH1 0x1 PUSH1 0x1 PUSH1 0xA0 SHL SUB NOT AND PUSH1 0x1 PUSH1 0x1 PUSH1 0xA0 SHL SUB SWAP3 SWAP1 SWAP3 AND SWAP2 SWAP1 SWAP2 OR SWAP1 SSTORE JUMP JUMPDEST PUSH1 0x0 PUSH2 0xB0D DUP3 DUP5 PUSH2 0x122D JUMP JUMPDEST SWAP4 SWAP3 POP POP POP JUMP JUMPDEST PUSH1 0x0 DUP1 PUSH2 0xB21 DUP5 DUP5 PUSH2 0xC5A JUMP JUMPDEST SWAP1 SWAP3 POP SWAP1 POP PUSH2 0xB31 DUP2 PUSH1 0x1 PUSH2 0xEC6 JUMP JUMPDEST PUSH1 0x1 PUSH1 0x1 PUSH1 0xA0 SHL SUB DUP6 AND PUSH1 0x0 SWAP1 DUP2 MSTORE PUSH1 0x3 PUSH1 0x20 MSTORE PUSH1 0x40 SWAP1 KECCAK256 SSTORE DUP2 ISZERO PUSH2 0xBD0 JUMPI PUSH1 0x40 DUP1 MLOAD DUP4 DUP2 MSTORE PUSH1 0x20 DUP2 ADD DUP4 SWAP1 MSTORE SWAP1 DUP2 ADD DUP5 SWAP1 MSTORE PUSH1 0x1 PUSH1 0x1 PUSH1 0xA0 SHL SUB DUP6 AND SWAP1 PUSH32 0x45C072AA05B9853B5A993DE7A28BC332EE01404A628CEC1A23CE0F659F842EF1 SWAP1 PUSH1 0x60 ADD PUSH1 0x40 MLOAD DUP1 SWAP2 SUB SWAP1 LOG2 PUSH2 0xBD0 PUSH1 0x1 PUSH1 0x1 PUSH1 0xA0 SHL SUB PUSH32 0x0 AND DUP6 DUP5 PUSH2 0xED2 JUMP JUMPDEST POP POP POP POP JUMP JUMPDEST PUSH1 0x0 PUSH2 0x437 PUSH2 0xBE6 PUSH1 0xA DUP5 PUSH2 0xF07 JUMP JUMPDEST PUSH1 0x1 SLOAD SWAP1 PUSH2 0xEC6 JUMP JUMPDEST PUSH1 0x40 MLOAD PUSH1 0x1 PUSH1 0x1 PUSH1 0xA0 SHL SUB DUP1 DUP6 AND PUSH1 0x24 DUP4 ADD MSTORE DUP4 AND PUSH1 0x44 DUP3 ADD MSTORE PUSH1 0x64 DUP2 ADD DUP3 SWAP1 MSTORE PUSH2 0xBD0 SWAP1 DUP6 SWAP1 PUSH4 0x23B872DD PUSH1 0xE0 SHL SWAP1 PUSH1 0x84 ADD JUMPDEST PUSH1 0x40 DUP1 MLOAD PUSH1 0x1F NOT DUP2 DUP5 SUB ADD DUP2 MSTORE SWAP2 SWAP1 MSTORE PUSH1 0x20 DUP2 ADD DUP1 MLOAD PUSH1 0x1 PUSH1 0x1 PUSH1 0xE0 SHL SUB AND PUSH1 0x1 PUSH1 0x1 PUSH1 0xE0 SHL SUB NOT SWAP1 SWAP4 AND SWAP3 SWAP1 SWAP3 OR SWAP1 SWAP2 MSTORE PUSH2 0xF13 JUMP JUMPDEST PUSH1 0x1 PUSH1 0x1 PUSH1 0xA0 SHL SUB DUP3 AND PUSH1 0x0 SWAP1 DUP2 MSTORE PUSH1 0x3 PUSH1 0x20 MSTORE PUSH1 0x40 DUP2 KECCAK256 SLOAD DUP2 SWAP1 DUP2 SWAP1 DUP2 DUP1 JUMPDEST DUP7 DUP4 GT PUSH2 0xE35 JUMPI PUSH2 0xC8A DUP4 PUSH2 0xBD6 JUMP JUMPDEST SWAP2 POP DUP2 NUMBER GT PUSH2 0xC98 JUMPI PUSH2 0xE35 JUMP JUMPDEST PUSH1 0x40 MLOAD PUSH4 0x981B24D PUSH1 0xE4 SHL DUP2 MSTORE PUSH1 0x4 DUP2 ADD DUP4 SWAP1 MSTORE PUSH32 0x0 PUSH1 0x1 PUSH1 0x1 PUSH1 0xA0 SHL SUB AND SWAP1 PUSH4 0x981B24D0 SWAP1 PUSH1 0x24 ADD PUSH1 0x20 PUSH1 0x40 MLOAD DUP1 DUP4 SUB DUP2 DUP7 DUP1 EXTCODESIZE ISZERO DUP1 ISZERO PUSH2 0xCF8 JUMPI PUSH1 0x0 DUP1 REVERT JUMPDEST POP GAS STATICCALL ISZERO DUP1 ISZERO PUSH2 0xD0C JUMPI RETURNDATASIZE PUSH1 0x0 DUP1 RETURNDATACOPY RETURNDATASIZE PUSH1 0x0 REVERT JUMPDEST POP POP POP POP PUSH1 0x40 MLOAD RETURNDATASIZE PUSH1 0x1F NOT PUSH1 0x1F DUP3 ADD AND DUP3 ADD DUP1 PUSH1 0x40 MSTORE POP DUP2 ADD SWAP1 PUSH2 0xD30 SWAP2 SWAP1 PUSH2 0x1244 JUMP JUMPDEST SWAP1 POP DUP1 ISZERO PUSH2 0xE23 JUMPI PUSH1 0x40 MLOAD PUSH4 0x277166BF PUSH1 0xE1 SHL DUP2 MSTORE PUSH1 0x1 PUSH1 0x1 PUSH1 0xA0 SHL SUB DUP10 DUP2 AND PUSH1 0x4 DUP4 ADD MSTORE PUSH1 0x24 DUP3 ADD DUP5 SWAP1 MSTORE PUSH2 0xE16 SWAP2 DUP4 SWAP2 PUSH2 0xE10 SWAP2 PUSH32 0x0 SWAP1 SWAP2 AND SWAP1 PUSH4 0x4EE2CD7E SWAP1 PUSH1 0x44 ADD PUSH1 0x20 PUSH1 0x40 MLOAD DUP1 DUP4 SUB DUP2 DUP7 DUP1 EXTCODESIZE ISZERO DUP1 ISZERO PUSH2 0xDAC JUMPI PUSH1 0x0 DUP1 REVERT JUMPDEST POP GAS STATICCALL ISZERO DUP1 ISZERO PUSH2 0xDC0 JUMPI RETURNDATASIZE PUSH1 0x0 DUP1 RETURNDATACOPY RETURNDATASIZE PUSH1 0x0 REVERT JUMPDEST POP POP POP POP PUSH1 0x40 MLOAD RETURNDATASIZE PUSH1 0x1F NOT PUSH1 0x1F DUP3 ADD AND DUP3 ADD DUP1 PUSH1 0x40 MSTORE POP DUP2 ADD SWAP1 PUSH2 0xDE4 SWAP2 SWAP1 PUSH2 0x1244 JUMP JUMPDEST PUSH1 0x2 DUP8 DUP2 SLOAD DUP2 LT PUSH2 0xDF7 JUMPI PUSH2 0xDF7 PUSH2 0x125D JUMP JUMPDEST SWAP1 PUSH1 0x0 MSTORE PUSH1 0x20 PUSH1 0x0 KECCAK256 ADD SLOAD PUSH2 0xF07 SWAP1 SWAP2 SWAP1 PUSH4 0xFFFFFFFF AND JUMP JUMPDEST SWAP1 PUSH2 0xFE5 JUMP JUMPDEST PUSH2 0xE20 SWAP1 DUP6 PUSH2 0x1273 JUMP JUMPDEST SWAP4 POP JUMPDEST DUP3 PUSH2 0xE2D DUP2 PUSH2 0x128B JUMP JUMPDEST SWAP4 POP POP PUSH2 0xC7A JUMP JUMPDEST DUP4 PUSH2 0xE41 PUSH1 0x1 DUP6 PUSH2 0x122D JUMP JUMPDEST SWAP6 POP SWAP6 POP POP POP POP POP SWAP3 POP SWAP3 SWAP1 POP JUMP JUMPDEST PUSH1 0x0 PUSH1 0x1 SLOAD NUMBER LT ISZERO PUSH2 0xEB3 JUMPI PUSH1 0x40 MLOAD PUSH3 0x461BCD PUSH1 0xE5 SHL DUP2 MSTORE PUSH1 0x20 PUSH1 0x4 DUP3 ADD MSTORE PUSH1 0x26 PUSH1 0x24 DUP3 ADD MSTORE PUSH32 0x546865207061796F757420636F6E7472616374206973206E6F74207374617274 PUSH1 0x44 DUP3 ADD MSTORE PUSH6 0x1959081E595D PUSH1 0xD2 SHL PUSH1 0x64 DUP3 ADD MSTORE PUSH1 0x84 ADD PUSH2 0x393 JUMP JUMPDEST PUSH2 0xA12 PUSH1 0xA PUSH1 0x1 SLOAD NUMBER PUSH2 0xE10 SWAP2 SWAP1 PUSH2 0x122D JUMP JUMPDEST PUSH1 0x0 PUSH2 0xB0D DUP3 DUP5 PUSH2 0x1273 JUMP JUMPDEST PUSH1 0x40 MLOAD PUSH1 0x1 PUSH1 0x1 PUSH1 0xA0 SHL SUB DUP4 AND PUSH1 0x24 DUP3 ADD MSTORE PUSH1 0x44 DUP2 ADD DUP3 SWAP1 MSTORE PUSH2 0xF02 SWAP1 DUP5 SWAP1 PUSH4 0xA9059CBB PUSH1 0xE0 SHL SWAP1 PUSH1 0x64 ADD PUSH2 0xC23 JUMP JUMPDEST POP POP POP JUMP JUMPDEST PUSH1 0x0 PUSH2 0xB0D DUP3 DUP5 PUSH2 0x12A6 JUMP JUMPDEST PUSH1 0x0 PUSH2 0xF68 DUP3 PUSH1 0x40 MLOAD DUP1 PUSH1 0x40 ADD PUSH1 0x40 MSTORE DUP1 PUSH1 0x20 DUP2 MSTORE PUSH1 0x20 ADD PUSH32 0x5361666545524332303A206C6F772D6C6576656C2063616C6C206661696C6564 DUP2 MSTORE POP DUP6 PUSH1 0x1 PUSH1 0x1 PUSH1 0xA0 SHL SUB AND PUSH2 0xFF1 SWAP1 SWAP3 SWAP2 SWAP1 PUSH4 0xFFFFFFFF AND JUMP JUMPDEST DUP1 MLOAD SWAP1 SWAP2 POP ISZERO PUSH2 0xF02 JUMPI DUP1 DUP1 PUSH1 0x20 ADD SWAP1 MLOAD DUP2 ADD SWAP1 PUSH2 0xF86 SWAP2 SWAP1 PUSH2 0x12C5 JUMP JUMPDEST PUSH2 0xF02 JUMPI PUSH1 0x40 MLOAD PUSH3 0x461BCD PUSH1 0xE5 SHL DUP2 MSTORE PUSH1 0x20 PUSH1 0x4 DUP3 ADD MSTORE PUSH1 0x2A PUSH1 0x24 DUP3 ADD MSTORE PUSH32 0x5361666545524332303A204552433230206F7065726174696F6E20646964206E PUSH1 0x44 DUP3 ADD MSTORE PUSH10 0x1BDD081CDD58D8D95959 PUSH1 0xB2 SHL PUSH1 0x64 DUP3 ADD MSTORE PUSH1 0x84 ADD PUSH2 0x393 JUMP JUMPDEST PUSH1 0x0 PUSH2 0xB0D DUP3 DUP5 PUSH2 0x12E7 JUMP JUMPDEST PUSH1 0x60 PUSH2 0x1000 DUP5 DUP5 PUSH1 0x0 DUP6 PUSH2 0x1008 JUMP JUMPDEST SWAP5 SWAP4 POP POP POP POP JUMP JUMPDEST PUSH1 0x60 DUP3 SELFBALANCE LT ISZERO PUSH2 0x1069 JUMPI PUSH1 0x40 MLOAD PUSH3 0x461BCD PUSH1 0xE5 SHL DUP2 MSTORE PUSH1 0x20 PUSH1 0x4 DUP3 ADD MSTORE PUSH1 0x26 PUSH1 0x24 DUP3 ADD MSTORE PUSH32 0x416464726573733A20696E73756666696369656E742062616C616E636520666F PUSH1 0x44 DUP3 ADD MSTORE PUSH6 0x1C8818D85B1B PUSH1 0xD2 SHL PUSH1 0x64 DUP3 ADD MSTORE PUSH1 0x84 ADD PUSH2 0x393 JUMP JUMPDEST DUP5 EXTCODESIZE PUSH2 0x10B7 JUMPI PUSH1 0x40 MLOAD PUSH3 0x461BCD PUSH1 0xE5 SHL DUP2 MSTORE PUSH1 0x20 PUSH1 0x4 DUP3 ADD MSTORE PUSH1 0x1D PUSH1 0x24 DUP3 ADD MSTORE PUSH32 0x416464726573733A2063616C6C20746F206E6F6E2D636F6E7472616374000000 PUSH1 0x44 DUP3 ADD MSTORE PUSH1 0x64 ADD PUSH2 0x393 JUMP JUMPDEST PUSH1 0x0 DUP1 DUP7 PUSH1 0x1 PUSH1 0x1 PUSH1 0xA0 SHL SUB AND DUP6 DUP8 PUSH1 0x40 MLOAD PUSH2 0x10D3 SWAP2 SWAP1 PUSH2 0x1335 JUMP JUMPDEST PUSH1 0x0 PUSH1 0x40 MLOAD DUP1 DUP4 SUB DUP2 DUP6 DUP8 GAS CALL SWAP3 POP POP POP RETURNDATASIZE DUP1 PUSH1 0x0 DUP2 EQ PUSH2 0x1110 JUMPI PUSH1 0x40 MLOAD SWAP2 POP PUSH1 0x1F NOT PUSH1 0x3F RETURNDATASIZE ADD AND DUP3 ADD PUSH1 0x40 MSTORE RETURNDATASIZE DUP3 MSTORE RETURNDATASIZE PUSH1 0x0 PUSH1 0x20 DUP5 ADD RETURNDATACOPY PUSH2 0x1115 JUMP JUMPDEST PUSH1 0x60 SWAP2 POP JUMPDEST POP SWAP2 POP SWAP2 POP PUSH2 0x1125 DUP3 DUP3 DUP7 PUSH2 0x1130 JUMP JUMPDEST SWAP8 SWAP7 POP POP POP POP POP POP POP JUMP JUMPDEST PUSH1 0x60 DUP4 ISZERO PUSH2 0x113F JUMPI POP DUP2 PUSH2 0xB0D JUMP JUMPDEST DUP3 MLOAD ISZERO PUSH2 0x114F JUMPI DUP3 MLOAD DUP1 DUP5 PUSH1 0x20 ADD REVERT JUMPDEST DUP2 PUSH1 0x40 MLOAD PUSH3 0x461BCD PUSH1 0xE5 SHL DUP2 MSTORE PUSH1 0x4 ADD PUSH2 0x393 SWAP2 SWAP1 PUSH2 0x1351 JUMP JUMPDEST PUSH1 0x0 PUSH1 0x20 DUP3 DUP5 SUB SLT ISZERO PUSH2 0x117B JUMPI PUSH1 0x0 DUP1 REVERT JUMPDEST DUP2 CALLDATALOAD PUSH1 0x1 PUSH1 0x1 PUSH1 0xA0 SHL SUB DUP2 AND DUP2 EQ PUSH2 0xB0D JUMPI PUSH1 0x0 DUP1 REVERT JUMPDEST PUSH1 0x0 PUSH1 0x20 DUP3 DUP5 SUB SLT ISZERO PUSH2 0x11A4 JUMPI PUSH1 0x0 DUP1 REVERT JUMPDEST POP CALLDATALOAD SWAP2 SWAP1 POP JUMP JUMPDEST PUSH1 0x20 DUP1 DUP3 MSTORE DUP2 DUP2 ADD MSTORE PUSH32 0x4F776E61626C653A2063616C6C6572206973206E6F7420746865206F776E6572 PUSH1 0x40 DUP3 ADD MSTORE PUSH1 0x60 ADD SWAP1 JUMP JUMPDEST PUSH1 0x20 DUP1 DUP3 MSTORE PUSH1 0x1E SWAP1 DUP3 ADD MSTORE PUSH32 0x4163636F756E7420616464726573732063616E6E6F74206265207A65726F0000 PUSH1 0x40 DUP3 ADD MSTORE PUSH1 0x60 ADD SWAP1 JUMP JUMPDEST PUSH4 0x4E487B71 PUSH1 0xE0 SHL PUSH1 0x0 MSTORE PUSH1 0x11 PUSH1 0x4 MSTORE PUSH1 0x24 PUSH1 0x0 REVERT JUMPDEST PUSH1 0x0 DUP3 DUP3 LT ISZERO PUSH2 0x123F JUMPI PUSH2 0x123F PUSH2 0x1217 JUMP JUMPDEST POP SUB SWAP1 JUMP JUMPDEST PUSH1 0x0 PUSH1 0x20 DUP3 DUP5 SUB SLT ISZERO PUSH2 0x1256 JUMPI PUSH1 0x0 DUP1 REVERT JUMPDEST POP MLOAD SWAP2 SWAP1 POP JUMP JUMPDEST PUSH4 0x4E487B71 PUSH1 0xE0 SHL PUSH1 0x0 MSTORE PUSH1 0x32 PUSH1 0x4 MSTORE PUSH1 0x24 PUSH1 0x0 REVERT JUMPDEST PUSH1 0x0 DUP3 NOT DUP3 GT ISZERO PUSH2 0x1286 JUMPI PUSH2 0x1286 PUSH2 0x1217 JUMP JUMPDEST POP ADD SWAP1 JUMP JUMPDEST PUSH1 0x0 PUSH1 0x0 NOT DUP3 EQ ISZERO PUSH2 0x129F JUMPI PUSH2 0x129F PUSH2 0x1217 JUMP JUMPDEST POP PUSH1 0x1 ADD SWAP1 JUMP JUMPDEST PUSH1 0x0 DUP2 PUSH1 0x0 NOT DIV DUP4 GT DUP3 ISZERO ISZERO AND ISZERO PUSH2 0x12C0 JUMPI PUSH2 0x12C0 PUSH2 0x1217 JUMP JUMPDEST POP MUL SWAP1 JUMP JUMPDEST PUSH1 0x0 PUSH1 0x20 DUP3 DUP5 SUB SLT ISZERO PUSH2 0x12D7 JUMPI PUSH1 0x0 DUP1 REVERT JUMPDEST DUP2 MLOAD DUP1 ISZERO ISZERO DUP2 EQ PUSH2 0xB0D JUMPI PUSH1 0x0 DUP1 REVERT JUMPDEST PUSH1 0x0 DUP3 PUSH2 0x1304 JUMPI PUSH4 0x4E487B71 PUSH1 0xE0 SHL PUSH1 0x0 MSTORE PUSH1 0x12 PUSH1 0x4 MSTORE PUSH1 0x24 PUSH1 0x0 REVERT JUMPDEST POP DIV SWAP1 JUMP JUMPDEST PUSH1 0x0 JUMPDEST DUP4 DUP2 LT ISZERO PUSH2 0x1324 JUMPI DUP2 DUP2 ADD MLOAD DUP4 DUP3 ADD MSTORE PUSH1 0x20 ADD PUSH2 0x130C JUMP JUMPDEST DUP4 DUP2 GT ISZERO PUSH2 0xBD0 JUMPI POP POP PUSH1 0x0 SWAP2 ADD MSTORE JUMP JUMPDEST PUSH1 0x0 DUP3 MLOAD PUSH2 0x1347 DUP2 DUP5 PUSH1 0x20 DUP8 ADD PUSH2 0x1309 JUMP JUMPDEST SWAP2 SWAP1 SWAP2 ADD SWAP3 SWAP2 POP POP JUMP JUMPDEST PUSH1 0x20 DUP2 MSTORE PUSH1 0x0 DUP3 MLOAD DUP1 PUSH1 0x20 DUP5 ADD MSTORE PUSH2 0x1370 DUP2 PUSH1 0x40 DUP6 ADD PUSH1 0x20 DUP8 ADD PUSH2 0x1309 JUMP JUMPDEST PUSH1 0x1F ADD PUSH1 0x1F NOT AND SWAP2 SWAP1 SWAP2 ADD PUSH1 0x40 ADD SWAP3 SWAP2 POP POP JUMP INVALID LOG2 PUSH5 0x6970667358 0x22 SLT KECCAK256 PUSH29 0x1490BD8580D53BA2CF995BD41A181A5FBF104931954DC7C9E6A205885B 0x1E 0xD8 PUSH5 0x736F6C6343 STOP ADDMOD MULMOD STOP CALLER ",
  "sha1": "40576835e6a7fd05a058f76ed72120cfe8a8dc49",
  "source": "// SPDX-License-Identifier: MIT\npragma solidity ^0.8.0;\n\nimport '@openzeppelin/contracts/access/Ownable.sol';\nimport '@openzeppelin/contracts/token/ERC20/IERC20.sol';\nimport '@openzeppelin/contracts/token/ERC20/utils/SafeERC20.sol';\nimport '@openzeppelin/contracts/utils/math/SafeMath.sol';\nimport '../interfaces/IVested.sol';\n\ncontract DailyPayout is Ownable\n{\n  using SafeERC20 for IERC20;\n  using SafeMath for uint256;\n\n  /* =========  MEMBER VARS ========== */\n  IERC20 immutable public token;  // FLEX token\n  IVested immutable public vested; // veFLEX\n  uint256 public constant EPOCH_BLOCKS = 10; // 10 is for test and 17280 is average blocks in 1 day with 5s block interval\n  uint256 public startBlockHeight;\n  uint256[] public payoutForEpoch;\n  mapping(address => uint256) public claimedEpoches;\n  mapping(address => bool) public isDistributor;\n  mapping(address => bool) public isOperator;\n\n  /* ===========   EVENTS  =========== */\n  event Claim(address indexed from, uint256 amount, uint256 lastClaimedEpoch, uint256 endingEpoch);\n  event IsDistributor(address indexed account, bool status);\n  event IsOperator(address indexed account, bool status);\n  event Distribute(address distributor, uint256 amount);\n  /* ========== CONSTRUCTOR ========== */\n  constructor(address tknAddr, address veAddr)\n  {\n    require(tknAddr != address(0), 'Token address cannot be zero.');  // FLEX token\n    require(veAddr != address(0) , 'Vested address cannot be zero.'); // veFLEX\n    token = IERC20(tknAddr);\n    vested = IVested(veAddr);\n  }\n\n  function addDistributor(address account) public onlyOwner {\n    require(account != address(0), 'Account address cannot be zero');\n    isDistributor[account] = true;\n    emit IsDistributor(account, true);\n  }\n\n  function removeDistributor(address account) public onlyOwner {\n    require(account != address(0), 'Account address cannot be zero');\n    isDistributor[account] = false;\n    emit IsDistributor(account, false);\n  }\n\n  function addOperator(address account) public onlyOwner {\n    require(account != address(0), 'Account address cannot be zero');\n    isOperator[account] = true;\n    emit IsOperator(account, true);\n  }\n\n  function removeOperator(address account) public onlyOwner {\n    require(account != address(0), 'Account address cannot be zero');\n    isOperator[account] = false;\n    emit IsOperator(account, false);\n  }\n\n  function setStartBlockHeight(uint256 blockHeight) public onlyOwner {\n    require(startBlockHeight == 0, \"Start block height already set!\");\n    startBlockHeight = blockHeight;\n  }\n\n  function distribute(uint256 amount) external {\n    require(msg.sender == owner() || isDistributor[msg.sender], \"Distributor not authorized!\");\n    require(amount > 0, \"Amount to be distributed must be greater than zero!\");\n    payoutForEpoch.push(amount);\n    emit Distribute(msg.sender, amount);\n    token.safeTransferFrom(msg.sender, address(this), amount);\n  }\n\n /**\n  * @dev \n  *   This is not current epoch, but rather the number of claimable epochs.\n  *   Name not changed for the sake of compatibility with former implementation.\n  */\n  function currentEpoch() public view returns(uint256) {\n    return payoutForEpoch.length;\n  }\n\n  function claim(address owner) external {\n    require(owner == msg.sender, \"Can only claim for own account\");\n    uint256 epoch = currentEpoch();\n    if (epoch > 0) {\n      _claimUntilEpoch(owner, epoch.sub(1));\n    }\n  }\n\n  function getClaimable(address owner) external view returns(uint256) {\n    uint256 epoch = currentEpoch();\n    if (epoch == 0) return 0;\n    (uint256 amount, ) = _getClaimableUntilEpoch(owner, epoch.sub(1));\n    return amount;\n  }\n\n/**\n  * @dev get current epoch\n  */\n  function getCurrentEpoch() external view returns(uint256) {\n    require(msg.sender == owner() || isOperator[msg.sender], \"Not authorized!\");\n    return _getCurrentEpoch();\n  }\n\n/**\n  * @dev get epoch start block height\n  */\n  function getEpochStartBlockHeight(uint256 epoch) external view returns(uint256) {\n    require(msg.sender == owner() || isOperator[msg.sender], \"Not authorized!\");\n    return _getEpochStartBlockHeight(epoch);\n  }\n\n\n/**\n  * @dev \n  *   Rewarded epochs might extend to the future, but can only \n  *   claim until epochs no later than the current actual epoch.\n  */\n  function _getClaimableUntilEpoch(address owner, uint256 endingEpoch) internal view returns(uint256, uint256) {\n    uint256 amount = 0;\n    uint256 epoch = 0;\n    uint256 blockHeightAtEpochStartTime;\n    uint256 totalSupply;\n    for (epoch = claimedEpoches[owner]; epoch <= endingEpoch; epoch++) {\n      blockHeightAtEpochStartTime = _getEpochStartBlockHeight(epoch);\n      if (block.number <= blockHeightAtEpochStartTime) break;\n      totalSupply = vested.totalSupplyAt(blockHeightAtEpochStartTime);\n      if (totalSupply > 0) {\n        amount += payoutForEpoch[epoch].mul(vested.balanceOfAt(owner, blockHeightAtEpochStartTime)).div(totalSupply);\n      }\n    }\n    return (amount, epoch - 1);\n  }\n\n  function _claimUntilEpoch(address owner, uint256 endingEpoch) internal {\n    (uint256 amount, uint256 lastClaimedEpoch) = _getClaimableUntilEpoch(owner, endingEpoch);\n    claimedEpoches[owner] = lastClaimedEpoch.add(1);\n    if (amount > 0) {\n      emit Claim(owner, amount, lastClaimedEpoch, endingEpoch);\n      token.safeTransfer(owner, amount);\n    }\n  }\n\n /**\n  * @dev \n  *   Given epoch number, get the epoch start block height.\n  */\n  function _getEpochStartBlockHeight(uint256 epoch) internal view returns(uint256) {\n    return startBlockHeight.add(EPOCH_BLOCKS.mul(epoch));\n  }\n\n /**\n  * @dev This is the actual current epoch.\n  */\n  function _getCurrentEpoch() internal view returns(uint256) {\n    require(block.number >= startBlockHeight, 'The payout contract is not started yet');\n    return (block.number - startBlockHeight).div(EPOCH_BLOCKS);\n  }\n} ",
  "sourcePath": "contracts/DailyPayout.sol",
  "type": "contract"
}